{
  "contractName": "BSCSquidPunks",
  "abi": [
    {
      "inputs": [],
      "stateMutability": "nonpayable",
      "type": "constructor"
    },
    {
      "anonymous": false,
      "inputs": [
        {
          "indexed": true,
          "internalType": "address",
          "name": "owner",
          "type": "address"
        },
        {
          "indexed": true,
          "internalType": "address",
          "name": "approved",
          "type": "address"
        },
        {
          "indexed": true,
          "internalType": "uint256",
          "name": "tokenId",
          "type": "uint256"
        }
      ],
      "name": "Approval",
      "type": "event"
    },
    {
      "anonymous": false,
      "inputs": [
        {
          "indexed": true,
          "internalType": "address",
          "name": "owner",
          "type": "address"
        },
        {
          "indexed": true,
          "internalType": "address",
          "name": "operator",
          "type": "address"
        },
        {
          "indexed": false,
          "internalType": "bool",
          "name": "approved",
          "type": "bool"
        }
      ],
      "name": "ApprovalForAll",
      "type": "event"
    },
    {
      "anonymous": false,
      "inputs": [
        {
          "indexed": true,
          "internalType": "address",
          "name": "from",
          "type": "address"
        },
        {
          "indexed": true,
          "internalType": "address",
          "name": "to",
          "type": "address"
        },
        {
          "indexed": true,
          "internalType": "uint256",
          "name": "tokenId",
          "type": "uint256"
        }
      ],
      "name": "Transfer",
      "type": "event"
    },
    {
      "inputs": [
        {
          "internalType": "address",
          "name": "to",
          "type": "address"
        },
        {
          "internalType": "uint256",
          "name": "tokenId",
          "type": "uint256"
        }
      ],
      "name": "approve",
      "outputs": [],
      "stateMutability": "nonpayable",
      "type": "function"
    },
    {
      "inputs": [
        {
          "internalType": "address",
          "name": "owner",
          "type": "address"
        }
      ],
      "name": "balanceOf",
      "outputs": [
        {
          "internalType": "uint256",
          "name": "",
          "type": "uint256"
        }
      ],
      "stateMutability": "view",
      "type": "function",
      "constant": true
    },
    {
      "inputs": [
        {
          "internalType": "uint256",
          "name": "tokenId",
          "type": "uint256"
        }
      ],
      "name": "getApproved",
      "outputs": [
        {
          "internalType": "address",
          "name": "",
          "type": "address"
        }
      ],
      "stateMutability": "view",
      "type": "function",
      "constant": true
    },
    {
      "inputs": [
        {
          "internalType": "address",
          "name": "owner",
          "type": "address"
        },
        {
          "internalType": "address",
          "name": "operator",
          "type": "address"
        }
      ],
      "name": "isApprovedForAll",
      "outputs": [
        {
          "internalType": "bool",
          "name": "",
          "type": "bool"
        }
      ],
      "stateMutability": "view",
      "type": "function",
      "constant": true
    },
    {
      "inputs": [],
      "name": "maxMint",
      "outputs": [
        {
          "internalType": "uint256",
          "name": "",
          "type": "uint256"
        }
      ],
      "stateMutability": "view",
      "type": "function",
      "constant": true
    },
    {
      "inputs": [],
      "name": "name",
      "outputs": [
        {
          "internalType": "string",
          "name": "",
          "type": "string"
        }
      ],
      "stateMutability": "view",
      "type": "function",
      "constant": true
    },
    {
      "inputs": [],
      "name": "normalPrice",
      "outputs": [
        {
          "internalType": "uint256",
          "name": "",
          "type": "uint256"
        }
      ],
      "stateMutability": "view",
      "type": "function",
      "constant": true
    },
    {
      "inputs": [],
      "name": "owner",
      "outputs": [
        {
          "internalType": "address",
          "name": "",
          "type": "address"
        }
      ],
      "stateMutability": "view",
      "type": "function",
      "constant": true
    },
    {
      "inputs": [
        {
          "internalType": "uint256",
          "name": "tokenId",
          "type": "uint256"
        }
      ],
      "name": "ownerOf",
      "outputs": [
        {
          "internalType": "address",
          "name": "",
          "type": "address"
        }
      ],
      "stateMutability": "view",
      "type": "function",
      "constant": true
    },
    {
      "inputs": [
        {
          "internalType": "address",
          "name": "from",
          "type": "address"
        },
        {
          "internalType": "address",
          "name": "to",
          "type": "address"
        },
        {
          "internalType": "uint256",
          "name": "tokenId",
          "type": "uint256"
        }
      ],
      "name": "safeTransferFrom",
      "outputs": [],
      "stateMutability": "nonpayable",
      "type": "function"
    },
    {
      "inputs": [
        {
          "internalType": "address",
          "name": "from",
          "type": "address"
        },
        {
          "internalType": "address",
          "name": "to",
          "type": "address"
        },
        {
          "internalType": "uint256",
          "name": "tokenId",
          "type": "uint256"
        },
        {
          "internalType": "bytes",
          "name": "_data",
          "type": "bytes"
        }
      ],
      "name": "safeTransferFrom",
      "outputs": [],
      "stateMutability": "nonpayable",
      "type": "function"
    },
    {
      "inputs": [
        {
          "internalType": "address",
          "name": "operator",
          "type": "address"
        },
        {
          "internalType": "bool",
          "name": "approved",
          "type": "bool"
        }
      ],
      "name": "setApprovalForAll",
      "outputs": [],
      "stateMutability": "nonpayable",
      "type": "function"
    },
    {
      "inputs": [
        {
          "internalType": "bytes4",
          "name": "interfaceId",
          "type": "bytes4"
        }
      ],
      "name": "supportsInterface",
      "outputs": [
        {
          "internalType": "bool",
          "name": "",
          "type": "bool"
        }
      ],
      "stateMutability": "view",
      "type": "function",
      "constant": true
    },
    {
      "inputs": [],
      "name": "symbol",
      "outputs": [
        {
          "internalType": "string",
          "name": "",
          "type": "string"
        }
      ],
      "stateMutability": "view",
      "type": "function",
      "constant": true
    },
    {
      "inputs": [
        {
          "internalType": "uint256",
          "name": "tokenId",
          "type": "uint256"
        }
      ],
      "name": "tokenURI",
      "outputs": [
        {
          "internalType": "string",
          "name": "",
          "type": "string"
        }
      ],
      "stateMutability": "view",
      "type": "function",
      "constant": true
    },
    {
      "inputs": [],
      "name": "totalMint",
      "outputs": [
        {
          "internalType": "uint256",
          "name": "",
          "type": "uint256"
        }
      ],
      "stateMutability": "view",
      "type": "function",
      "constant": true
    },
    {
      "inputs": [
        {
          "internalType": "address",
          "name": "from",
          "type": "address"
        },
        {
          "internalType": "address",
          "name": "to",
          "type": "address"
        },
        {
          "internalType": "uint256",
          "name": "tokenId",
          "type": "uint256"
        }
      ],
      "name": "transferFrom",
      "outputs": [],
      "stateMutability": "nonpayable",
      "type": "function"
    },
    {
      "stateMutability": "payable",
      "type": "receive",
      "payable": true
    },
    {
      "inputs": [
        {
          "internalType": "address",
          "name": "player",
          "type": "address"
        },
        {
          "internalType": "string[]",
          "name": "tokenURI",
          "type": "string[]"
        }
      ],
      "name": "awardItem",
      "outputs": [],
      "stateMutability": "payable",
      "type": "function",
      "payable": true
    },
    {
      "inputs": [
        {
          "internalType": "uint256",
          "name": "withdrawAmount",
          "type": "uint256"
        }
      ],
      "name": "claimBalance",
      "outputs": [],
      "stateMutability": "payable",
      "type": "function",
      "payable": true
    },
    {
      "inputs": [
        {
          "internalType": "address",
          "name": "adres",
          "type": "address"
        }
      ],
      "name": "changeOwner",
      "outputs": [],
      "stateMutability": "payable",
      "type": "function",
      "payable": true
    }
  ],
  "bytecode": "0x60806040527370af87de68bf96e0a14447d0204895b40bd608b3600860006101000a81548173ffffffffffffffffffffffffffffffffffffffff021916908373ffffffffffffffffffffffffffffffffffffffff16021790555067016345785d8a00006009556000600a5561270f600b553480156200007d57600080fd5b506040518060400160405280600d81526020017f425343537175696450756e6b73000000000000000000000000000000000000008152506040518060400160405280600481526020017f425351500000000000000000000000000000000000000000000000000000000081525081600090805190602001906200010292919062000124565b5080600190805190602001906200011b92919062000124565b50505062000239565b8280546200013290620001d4565b90600052602060002090601f016020900481019282620001565760008555620001a2565b82601f106200017157805160ff1916838001178555620001a2565b82800160010185558215620001a2579182015b82811115620001a157825182559160200191906001019062000184565b5b509050620001b19190620001b5565b5090565b5b80821115620001d0576000816000905550600101620001b6565b5090565b60006002820490506001821680620001ed57607f821691505b602082108114156200020457620002036200020a565b5b50919050565b7f4e487b7100000000000000000000000000000000000000000000000000000000600052602260045260246000fd5b61315780620002496000396000f3fe6080604052600436106101235760003560e01c80638da5cb5b116100a0578063ad6a81e411610064578063ad6a81e4146103e5578063b88d4fde14610401578063c87b56dd1461042a578063e985e9c514610467578063e9fad396146104a45761012a565b80638da5cb5b1461031f578063945ec9dd1461034a57806395d89b4114610375578063a22cb465146103a0578063a6f9dae1146103c95761012a565b806342842e0e116100e757806342842e0e1461022657806359a7715a1461024f5780636352211e1461027a57806370a08231146102b75780637501f741146102f45761012a565b806301ffc9a71461012f57806306fdde031461016c578063081812fc14610197578063095ea7b3146101d457806323b872dd146101fd5761012a565b3661012a57005b600080fd5b34801561013b57600080fd5b5061015660048036038101906101519190612112565b6104c0565b604051610163919061253b565b60405180910390f35b34801561017857600080fd5b506101816105a2565b60405161018e9190612556565b60405180910390f35b3480156101a357600080fd5b506101be60048036038101906101b99190612164565b610634565b6040516101cb91906124d4565b60405180910390f35b3480156101e057600080fd5b506101fb60048036038101906101f691906120d6565b6106b9565b005b34801561020957600080fd5b50610224600480360381019061021f9190611f7c565b6107d1565b005b34801561023257600080fd5b5061024d60048036038101906102489190611f7c565b610831565b005b34801561025b57600080fd5b50610264610851565b6040516102719190612798565b60405180910390f35b34801561028657600080fd5b506102a1600480360381019061029c9190612164565b610857565b6040516102ae91906124d4565b60405180910390f35b3480156102c357600080fd5b506102de60048036038101906102d99190611f17565b610909565b6040516102eb9190612798565b60405180910390f35b34801561030057600080fd5b506103096109c1565b6040516103169190612798565b60405180910390f35b34801561032b57600080fd5b506103346109c7565b60405161034191906124d4565b60405180910390f35b34801561035657600080fd5b5061035f6109ed565b60405161036c9190612798565b60405180910390f35b34801561038157600080fd5b5061038a6109f3565b6040516103979190612556565b60405180910390f35b3480156103ac57600080fd5b506103c760048036038101906103c2919061209a565b610a85565b005b6103e360048036038101906103de9190611f17565b610a9b565b005b6103ff60048036038101906103fa9190612046565b610b6f565b005b34801561040d57600080fd5b5061042860048036038101906104239190611fcb565b610c4f565b005b34801561043657600080fd5b50610451600480360381019061044c9190612164565b610cb1565b60405161045e9190612556565b60405180910390f35b34801561047357600080fd5b5061048e60048036038101906104899190611f40565b610e03565b60405161049b919061253b565b60405180910390f35b6104be60048036038101906104b99190612164565b610e97565b005b60007f80ac58cd000000000000000000000000000000000000000000000000000000007bffffffffffffffffffffffffffffffffffffffffffffffffffffffff1916827bffffffffffffffffffffffffffffffffffffffffffffffffffffffff1916148061058b57507f5b5e139f000000000000000000000000000000000000000000000000000000007bffffffffffffffffffffffffffffffffffffffffffffffffffffffff1916827bffffffffffffffffffffffffffffffffffffffffffffffffffffffff1916145b8061059b575061059a82610f71565b5b9050919050565b6060600080546105b190612a74565b80601f01602080910402602001604051908101604052809291908181526020018280546105dd90612a74565b801561062a5780601f106105ff5761010080835404028352916020019161062a565b820191906000526020600020905b81548152906001019060200180831161060d57829003601f168201915b5050505050905090565b600061063f82610fdb565b61067e576040517f08c379a0000000000000000000000000000000000000000000000000000000008152600401610675906126d8565b60405180910390fd5b6004600083815260200190815260200160002060009054906101000a900473ffffffffffffffffffffffffffffffffffffffff169050919050565b60006106c482610857565b90508073ffffffffffffffffffffffffffffffffffffffff168373ffffffffffffffffffffffffffffffffffffffff161415610735576040517f08c379a000000000000000000000000000000000000000000000000000000000815260040161072c90612738565b60405180910390fd5b8073ffffffffffffffffffffffffffffffffffffffff16610754611047565b73ffffffffffffffffffffffffffffffffffffffff16148061078357506107828161077d611047565b610e03565b5b6107c2576040517f08c379a00000000000000000000000000000000000000000000000000000000081526004016107b990612618565b60405180910390fd5b6107cc838361104f565b505050565b6107e26107dc611047565b82611108565b610821576040517f08c379a000000000000000000000000000000000000000000000000000000000815260040161081890612778565b60405180910390fd5b61082c8383836111e6565b505050565b61084c83838360405180602001604052806000815250610c4f565b505050565b600a5481565b6000806002600084815260200190815260200160002060009054906101000a900473ffffffffffffffffffffffffffffffffffffffff169050600073ffffffffffffffffffffffffffffffffffffffff168173ffffffffffffffffffffffffffffffffffffffff161415610900576040517f08c379a00000000000000000000000000000000000000000000000000000000081526004016108f790612658565b60405180910390fd5b80915050919050565b60008073ffffffffffffffffffffffffffffffffffffffff168273ffffffffffffffffffffffffffffffffffffffff16141561097a576040517f08c379a000000000000000000000000000000000000000000000000000000000815260040161097190612638565b60405180910390fd5b600360008373ffffffffffffffffffffffffffffffffffffffff1673ffffffffffffffffffffffffffffffffffffffff168152602001908152602001600020549050919050565b600b5481565b600860009054906101000a900473ffffffffffffffffffffffffffffffffffffffff1681565b60095481565b606060018054610a0290612a74565b80601f0160208091040260200160405190810160405280929190818152602001828054610a2e90612a74565b8015610a7b5780601f10610a5057610100808354040283529160200191610a7b565b820191906000526020600020905b815481529060010190602001808311610a5e57829003601f168201915b5050505050905090565b610a97610a90611047565b8383611442565b5050565b600860009054906101000a900473ffffffffffffffffffffffffffffffffffffffff1673ffffffffffffffffffffffffffffffffffffffff163373ffffffffffffffffffffffffffffffffffffffff1614610b2b576040517f08c379a0000000000000000000000000000000000000000000000000000000008152600401610b2290612758565b60405180910390fd5b80600860006101000a81548173ffffffffffffffffffffffffffffffffffffffff021916908373ffffffffffffffffffffffffffffffffffffffff16021790555050565b346009548251610b7f9190612930565b11158015610b9d5750600a548151610b9791906128a9565b600b5410155b610ba657600080fd5b60005b8151811015610c4a576000610bbe60076115af565b9050610bca60076115bd565b610bd484826115d3565b610c1e81848481518110610c11577f4e487b7100000000000000000000000000000000000000000000000000000000600052603260045260246000fd5b60200260200101516117a1565b600a6000815480929190610c3190612ad7565b9190505550508080610c4290612ad7565b915050610ba9565b505050565b610c60610c5a611047565b83611108565b610c9f576040517f08c379a0000000000000000000000000000000000000000000000000000000008152600401610c9690612778565b60405180910390fd5b610cab84848484611815565b50505050565b6060610cbc82610fdb565b610cfb576040517f08c379a0000000000000000000000000000000000000000000000000000000008152600401610cf2906126b8565b60405180910390fd5b6000600660008481526020019081526020016000208054610d1b90612a74565b80601f0160208091040260200160405190810160405280929190818152602001828054610d4790612a74565b8015610d945780601f10610d6957610100808354040283529160200191610d94565b820191906000526020600020905b815481529060010190602001808311610d7757829003601f168201915b505050505090506000610da5611871565b9050600081511415610dbb578192505050610dfe565b600082511115610df0578082604051602001610dd89291906124b0565b60405160208183030381529060405292505050610dfe565b610df984611888565b925050505b919050565b6000600560008473ffffffffffffffffffffffffffffffffffffffff1673ffffffffffffffffffffffffffffffffffffffff16815260200190815260200160002060008373ffffffffffffffffffffffffffffffffffffffff1673ffffffffffffffffffffffffffffffffffffffff16815260200190815260200160002060009054906101000a900460ff16905092915050565b600860009054906101000a900473ffffffffffffffffffffffffffffffffffffffff1673ffffffffffffffffffffffffffffffffffffffff163373ffffffffffffffffffffffffffffffffffffffff1614610f27576040517f08c379a0000000000000000000000000000000000000000000000000000000008152600401610f1e90612758565b60405180910390fd5b3373ffffffffffffffffffffffffffffffffffffffff166108fc829081150290604051600060405180830381858888f19350505050158015610f6d573d6000803e3d6000fd5b5050565b60007f01ffc9a7000000000000000000000000000000000000000000000000000000007bffffffffffffffffffffffffffffffffffffffffffffffffffffffff1916827bffffffffffffffffffffffffffffffffffffffffffffffffffffffff1916149050919050565b60008073ffffffffffffffffffffffffffffffffffffffff166002600084815260200190815260200160002060009054906101000a900473ffffffffffffffffffffffffffffffffffffffff1673ffffffffffffffffffffffffffffffffffffffff1614159050919050565b600033905090565b816004600083815260200190815260200160002060006101000a81548173ffffffffffffffffffffffffffffffffffffffff021916908373ffffffffffffffffffffffffffffffffffffffff160217905550808273ffffffffffffffffffffffffffffffffffffffff166110c283610857565b73ffffffffffffffffffffffffffffffffffffffff167f8c5be1e5ebec7d5bd14f71427d1e84f3dd0314c0f7b2291e5b200ac8c7c3b92560405160405180910390a45050565b600061111382610fdb565b611152576040517f08c379a0000000000000000000000000000000000000000000000000000000008152600401611149906125f8565b60405180910390fd5b600061115d83610857565b90508073ffffffffffffffffffffffffffffffffffffffff168473ffffffffffffffffffffffffffffffffffffffff1614806111cc57508373ffffffffffffffffffffffffffffffffffffffff166111b484610634565b73ffffffffffffffffffffffffffffffffffffffff16145b806111dd57506111dc8185610e03565b5b91505092915050565b8273ffffffffffffffffffffffffffffffffffffffff1661120682610857565b73ffffffffffffffffffffffffffffffffffffffff161461125c576040517f08c379a0000000000000000000000000000000000000000000000000000000008152600401611253906126f8565b60405180910390fd5b600073ffffffffffffffffffffffffffffffffffffffff168273ffffffffffffffffffffffffffffffffffffffff1614156112cc576040517f08c379a00000000000000000000000000000000000000000000000000000000081526004016112c3906125b8565b60405180910390fd5b6112d783838361192f565b6112e260008261104f565b6001600360008573ffffffffffffffffffffffffffffffffffffffff1673ffffffffffffffffffffffffffffffffffffffff1681526020019081526020016000206000828254611332919061298a565b925050819055506001600360008473ffffffffffffffffffffffffffffffffffffffff1673ffffffffffffffffffffffffffffffffffffffff168152602001908152602001600020600082825461138991906128a9565b92505081905550816002600083815260200190815260200160002060006101000a81548173ffffffffffffffffffffffffffffffffffffffff021916908373ffffffffffffffffffffffffffffffffffffffff160217905550808273ffffffffffffffffffffffffffffffffffffffff168473ffffffffffffffffffffffffffffffffffffffff167fddf252ad1be2c89b69c2b068fc378daa952ba7f163c4a11628f55a4df523b3ef60405160405180910390a4505050565b8173ffffffffffffffffffffffffffffffffffffffff168373ffffffffffffffffffffffffffffffffffffffff1614156114b1576040517f08c379a00000000000000000000000000000000000000000000000000000000081526004016114a8906125d8565b60405180910390fd5b80600560008573ffffffffffffffffffffffffffffffffffffffff1673ffffffffffffffffffffffffffffffffffffffff16815260200190815260200160002060008473ffffffffffffffffffffffffffffffffffffffff1673ffffffffffffffffffffffffffffffffffffffff16815260200190815260200160002060006101000a81548160ff0219169083151502179055508173ffffffffffffffffffffffffffffffffffffffff168373ffffffffffffffffffffffffffffffffffffffff167f17307eab39ab6107e8899845ad3d59bd9653f200f220920489ca2b5937696c31836040516115a2919061253b565b60405180910390a3505050565b600081600001549050919050565b6001816000016000828254019250508190555050565b600073ffffffffffffffffffffffffffffffffffffffff168273ffffffffffffffffffffffffffffffffffffffff161415611643576040517f08c379a000000000000000000000000000000000000000000000000000000000815260040161163a90612698565b60405180910390fd5b61164c81610fdb565b1561168c576040517f08c379a000000000000000000000000000000000000000000000000000000000815260040161168390612598565b60405180910390fd5b6116986000838361192f565b6001600360008473ffffffffffffffffffffffffffffffffffffffff1673ffffffffffffffffffffffffffffffffffffffff16815260200190815260200160002060008282546116e891906128a9565b92505081905550816002600083815260200190815260200160002060006101000a81548173ffffffffffffffffffffffffffffffffffffffff021916908373ffffffffffffffffffffffffffffffffffffffff160217905550808273ffffffffffffffffffffffffffffffffffffffff16600073ffffffffffffffffffffffffffffffffffffffff167fddf252ad1be2c89b69c2b068fc378daa952ba7f163c4a11628f55a4df523b3ef60405160405180910390a45050565b6117aa82610fdb565b6117e9576040517f08c379a00000000000000000000000000000000000000000000000000000000081526004016117e090612678565b60405180910390fd5b80600660008481526020019081526020016000209080519060200190611810929190611c8b565b505050565b6118208484846111e6565b61182c84848484611934565b61186b576040517f08c379a000000000000000000000000000000000000000000000000000000000815260040161186290612578565b60405180910390fd5b50505050565b606060405180602001604052806000815250905090565b606061189382610fdb565b6118d2576040517f08c379a00000000000000000000000000000000000000000000000000000000081526004016118c990612718565b60405180910390fd5b60006118dc611871565b905060008151116118fc5760405180602001604052806000815250611927565b8061190684611acb565b6040516020016119179291906124b0565b6040516020818303038152906040525b915050919050565b505050565b60006119558473ffffffffffffffffffffffffffffffffffffffff16611c78565b15611abe578373ffffffffffffffffffffffffffffffffffffffff1663150b7a0261197e611047565b8786866040518563ffffffff1660e01b81526004016119a094939291906124ef565b602060405180830381600087803b1580156119ba57600080fd5b505af19250505080156119eb57506040513d601f19601f820116820180604052508101906119e8919061213b565b60015b611a6e573d8060008114611a1b576040519150601f19603f3d011682016040523d82523d6000602084013e611a20565b606091505b50600081511415611a66576040517f08c379a0000000000000000000000000000000000000000000000000000000008152600401611a5d90612578565b60405180910390fd5b805181602001fd5b63150b7a0260e01b7bffffffffffffffffffffffffffffffffffffffffffffffffffffffff1916817bffffffffffffffffffffffffffffffffffffffffffffffffffffffff191614915050611ac3565b600190505b949350505050565b60606000821415611b13576040518060400160405280600181526020017f30000000000000000000000000000000000000000000000000000000000000008152509050611c73565b600082905060005b60008214611b45578080611b2e90612ad7565b915050600a82611b3e91906128ff565b9150611b1b565b60008167ffffffffffffffff811115611b87577f4e487b7100000000000000000000000000000000000000000000000000000000600052604160045260246000fd5b6040519080825280601f01601f191660200182016040528015611bb95781602001600182028036833780820191505090505b5090505b60008514611c6c57600182611bd2919061298a565b9150600a85611be19190612b20565b6030611bed91906128a9565b60f81b818381518110611c29577f4e487b7100000000000000000000000000000000000000000000000000000000600052603260045260246000fd5b60200101907effffffffffffffffffffffffffffffffffffffffffffffffffffffffffffff1916908160001a905350600a85611c6591906128ff565b9450611bbd565b8093505050505b919050565b600080823b905060008111915050919050565b828054611c9790612a74565b90600052602060002090601f016020900481019282611cb95760008555611d00565b82601f10611cd257805160ff1916838001178555611d00565b82800160010185558215611d00579182015b82811115611cff578251825591602001919060010190611ce4565b5b509050611d0d9190611d11565b5090565b5b80821115611d2a576000816000905550600101611d12565b5090565b6000611d41611d3c846127d8565b6127b3565b90508083825260208201905082856020860282011115611d6057600080fd5b60005b85811015611daa57813567ffffffffffffffff811115611d8257600080fd5b808601611d8f8982611ed8565b85526020850194506020840193505050600181019050611d63565b5050509392505050565b6000611dc7611dc284612804565b6127b3565b905082815260208101848484011115611ddf57600080fd5b611dea848285612a32565b509392505050565b6000611e05611e0084612835565b6127b3565b905082815260208101848484011115611e1d57600080fd5b611e28848285612a32565b509392505050565b600081359050611e3f816130c5565b92915050565b600082601f830112611e5657600080fd5b8135611e66848260208601611d2e565b91505092915050565b600081359050611e7e816130dc565b92915050565b600081359050611e93816130f3565b92915050565b600081519050611ea8816130f3565b92915050565b600082601f830112611ebf57600080fd5b8135611ecf848260208601611db4565b91505092915050565b600082601f830112611ee957600080fd5b8135611ef9848260208601611df2565b91505092915050565b600081359050611f118161310a565b92915050565b600060208284031215611f2957600080fd5b6000611f3784828501611e30565b91505092915050565b60008060408385031215611f5357600080fd5b6000611f6185828601611e30565b9250506020611f7285828601611e30565b9150509250929050565b600080600060608486031215611f9157600080fd5b6000611f9f86828701611e30565b9350506020611fb086828701611e30565b9250506040611fc186828701611f02565b9150509250925092565b60008060008060808587031215611fe157600080fd5b6000611fef87828801611e30565b945050602061200087828801611e30565b935050604061201187828801611f02565b925050606085013567ffffffffffffffff81111561202e57600080fd5b61203a87828801611eae565b91505092959194509250565b6000806040838503121561205957600080fd5b600061206785828601611e30565b925050602083013567ffffffffffffffff81111561208457600080fd5b61209085828601611e45565b9150509250929050565b600080604083850312156120ad57600080fd5b60006120bb85828601611e30565b92505060206120cc85828601611e6f565b9150509250929050565b600080604083850312156120e957600080fd5b60006120f785828601611e30565b925050602061210885828601611f02565b9150509250929050565b60006020828403121561212457600080fd5b600061213284828501611e84565b91505092915050565b60006020828403121561214d57600080fd5b600061215b84828501611e99565b91505092915050565b60006020828403121561217657600080fd5b600061218484828501611f02565b91505092915050565b612196816129be565b82525050565b6121a5816129d0565b82525050565b60006121b682612866565b6121c0818561287c565b93506121d0818560208601612a41565b6121d981612c0d565b840191505092915050565b60006121ef82612871565b6121f9818561288d565b9350612209818560208601612a41565b61221281612c0d565b840191505092915050565b600061222882612871565b612232818561289e565b9350612242818560208601612a41565b80840191505092915050565b600061225b60328361288d565b915061226682612c1e565b604082019050919050565b600061227e601c8361288d565b915061228982612c6d565b602082019050919050565b60006122a160248361288d565b91506122ac82612c96565b604082019050919050565b60006122c460198361288d565b91506122cf82612ce5565b602082019050919050565b60006122e7602c8361288d565b91506122f282612d0e565b604082019050919050565b600061230a60388361288d565b915061231582612d5d565b604082019050919050565b600061232d602a8361288d565b915061233882612dac565b604082019050919050565b600061235060298361288d565b915061235b82612dfb565b604082019050919050565b6000612373602e8361288d565b915061237e82612e4a565b604082019050919050565b600061239660208361288d565b91506123a182612e99565b602082019050919050565b60006123b960318361288d565b91506123c482612ec2565b604082019050919050565b60006123dc602c8361288d565b91506123e782612f11565b604082019050919050565b60006123ff60298361288d565b915061240a82612f60565b604082019050919050565b6000612422602f8361288d565b915061242d82612faf565b604082019050919050565b600061244560218361288d565b915061245082612ffe565b604082019050919050565b6000612468600a8361288d565b91506124738261304d565b602082019050919050565b600061248b60318361288d565b915061249682613076565b604082019050919050565b6124aa81612a28565b82525050565b60006124bc828561221d565b91506124c8828461221d565b91508190509392505050565b60006020820190506124e9600083018461218d565b92915050565b6000608082019050612504600083018761218d565b612511602083018661218d565b61251e60408301856124a1565b818103606083015261253081846121ab565b905095945050505050565b6000602082019050612550600083018461219c565b92915050565b6000602082019050818103600083015261257081846121e4565b905092915050565b600060208201905081810360008301526125918161224e565b9050919050565b600060208201905081810360008301526125b181612271565b9050919050565b600060208201905081810360008301526125d181612294565b9050919050565b600060208201905081810360008301526125f1816122b7565b9050919050565b60006020820190508181036000830152612611816122da565b9050919050565b60006020820190508181036000830152612631816122fd565b9050919050565b6000602082019050818103600083015261265181612320565b9050919050565b6000602082019050818103600083015261267181612343565b9050919050565b6000602082019050818103600083015261269181612366565b9050919050565b600060208201905081810360008301526126b181612389565b9050919050565b600060208201905081810360008301526126d1816123ac565b9050919050565b600060208201905081810360008301526126f1816123cf565b9050919050565b60006020820190508181036000830152612711816123f2565b9050919050565b6000602082019050818103600083015261273181612415565b9050919050565b6000602082019050818103600083015261275181612438565b9050919050565b600060208201905081810360008301526127718161245b565b9050919050565b600060208201905081810360008301526127918161247e565b9050919050565b60006020820190506127ad60008301846124a1565b92915050565b60006127bd6127ce565b90506127c98282612aa6565b919050565b6000604051905090565b600067ffffffffffffffff8211156127f3576127f2612bde565b5b602082029050602081019050919050565b600067ffffffffffffffff82111561281f5761281e612bde565b5b61282882612c0d565b9050602081019050919050565b600067ffffffffffffffff8211156128505761284f612bde565b5b61285982612c0d565b9050602081019050919050565b600081519050919050565b600081519050919050565b600082825260208201905092915050565b600082825260208201905092915050565b600081905092915050565b60006128b482612a28565b91506128bf83612a28565b9250827fffffffffffffffffffffffffffffffffffffffffffffffffffffffffffffffff038211156128f4576128f3612b51565b5b828201905092915050565b600061290a82612a28565b915061291583612a28565b92508261292557612924612b80565b5b828204905092915050565b600061293b82612a28565b915061294683612a28565b9250817fffffffffffffffffffffffffffffffffffffffffffffffffffffffffffffffff048311821515161561297f5761297e612b51565b5b828202905092915050565b600061299582612a28565b91506129a083612a28565b9250828210156129b3576129b2612b51565b5b828203905092915050565b60006129c982612a08565b9050919050565b60008115159050919050565b60007fffffffff0000000000000000000000000000000000000000000000000000000082169050919050565b600073ffffffffffffffffffffffffffffffffffffffff82169050919050565b6000819050919050565b82818337600083830152505050565b60005b83811015612a5f578082015181840152602081019050612a44565b83811115612a6e576000848401525b50505050565b60006002820490506001821680612a8c57607f821691505b60208210811415612aa057612a9f612baf565b5b50919050565b612aaf82612c0d565b810181811067ffffffffffffffff82111715612ace57612acd612bde565b5b80604052505050565b6000612ae282612a28565b91507fffffffffffffffffffffffffffffffffffffffffffffffffffffffffffffffff821415612b1557612b14612b51565b5b600182019050919050565b6000612b2b82612a28565b9150612b3683612a28565b925082612b4657612b45612b80565b5b828206905092915050565b7f4e487b7100000000000000000000000000000000000000000000000000000000600052601160045260246000fd5b7f4e487b7100000000000000000000000000000000000000000000000000000000600052601260045260246000fd5b7f4e487b7100000000000000000000000000000000000000000000000000000000600052602260045260246000fd5b7f4e487b7100000000000000000000000000000000000000000000000000000000600052604160045260246000fd5b6000601f19601f8301169050919050565b7f4552433732313a207472616e7366657220746f206e6f6e20455243373231526560008201527f63656976657220696d706c656d656e7465720000000000000000000000000000602082015250565b7f4552433732313a20746f6b656e20616c7265616479206d696e74656400000000600082015250565b7f4552433732313a207472616e7366657220746f20746865207a65726f2061646460008201527f7265737300000000000000000000000000000000000000000000000000000000602082015250565b7f4552433732313a20617070726f766520746f2063616c6c657200000000000000600082015250565b7f4552433732313a206f70657261746f7220717565727920666f72206e6f6e657860008201527f697374656e7420746f6b656e0000000000000000000000000000000000000000602082015250565b7f4552433732313a20617070726f76652063616c6c6572206973206e6f74206f7760008201527f6e6572206e6f7220617070726f76656420666f7220616c6c0000000000000000602082015250565b7f4552433732313a2062616c616e636520717565727920666f7220746865207a6560008201527f726f206164647265737300000000000000000000000000000000000000000000602082015250565b7f4552433732313a206f776e657220717565727920666f72206e6f6e657869737460008201527f656e7420746f6b656e0000000000000000000000000000000000000000000000602082015250565b7f45524337323155524953746f726167653a2055524920736574206f66206e6f6e60008201527f6578697374656e7420746f6b656e000000000000000000000000000000000000602082015250565b7f4552433732313a206d696e7420746f20746865207a65726f2061646472657373600082015250565b7f45524337323155524953746f726167653a2055524920717565727920666f722060008201527f6e6f6e6578697374656e7420746f6b656e000000000000000000000000000000602082015250565b7f4552433732313a20617070726f76656420717565727920666f72206e6f6e657860008201527f697374656e7420746f6b656e0000000000000000000000000000000000000000602082015250565b7f4552433732313a207472616e73666572206f6620746f6b656e2074686174206960008201527f73206e6f74206f776e0000000000000000000000000000000000000000000000602082015250565b7f4552433732314d657461646174613a2055524920717565727920666f72206e6f60008201527f6e6578697374656e7420746f6b656e0000000000000000000000000000000000602082015250565b7f4552433732313a20617070726f76616c20746f2063757272656e74206f776e6560008201527f7200000000000000000000000000000000000000000000000000000000000000602082015250565b7f41444d494e5f4f4e4c5900000000000000000000000000000000000000000000600082015250565b7f4552433732313a207472616e736665722063616c6c6572206973206e6f74206f60008201527f776e6572206e6f7220617070726f766564000000000000000000000000000000602082015250565b6130ce816129be565b81146130d957600080fd5b50565b6130e5816129d0565b81146130f057600080fd5b50565b6130fc816129dc565b811461310757600080fd5b50565b61311381612a28565b811461311e57600080fd5b5056fea264697066735822122072d6dd5ff4c245b25697aaf9d7b673f6c01c9537ab3ed5757ada6715d913cd3764736f6c63430008040033",
  "immutableReferences": {},
  "source": "pragma solidity ^0.8.0;\n\nimport \"@openzeppelin/contracts/token/ERC721/extensions/ERC721URIStorage.sol\";\nimport \"@openzeppelin/contracts/utils/Counters.sol\";\n\ncontract BSCSquidPunks is ERC721URIStorage {\n    using Counters for Counters.Counter;\n    Counters.Counter private _tokenIds;\n    address public owner=0x70Af87dE68Bf96E0A14447d0204895B40Bd608b3;\n    uint public normalPrice =100000000000000000; //0.1 eth\n    uint public totalMint=0;\n    uint public maxMint=9999;\n    constructor() ERC721(\"BSCSquidPunks\", \"BSQP\") {\n    }\n  \n\n    receive() external payable {} \n    \n     modifier onlyOwner{\n        require(\n            msg.sender==owner,\"ADMIN_ONLY\"\n        );\n        _;\n    }\n    function awardItem(address player, string[] memory tokenURI) public payable{\n        require((tokenURI.length*normalPrice<=msg.value)&&(maxMint>=(tokenURI.length+totalMint)));\n        for (uint i=0; i<tokenURI.length; i++) {\n        uint256 newItemId = _tokenIds.current();\n        _tokenIds.increment();\n        _mint(player, newItemId);\n        _setTokenURI(newItemId, tokenURI[i]);\n        totalMint++;\n        }\n    }\n    function claimBalance(uint withdrawAmount) external payable onlyOwner{\n        payable(msg.sender).transfer(withdrawAmount);\n    }\n    function changeOwner(address adres) external payable onlyOwner{\n        owner=adres;\n    }\n    \n}",
  "sourcePath": "C:\\Users\\KEKW\\Desktop\\OtherProjects\\SquidNFT\\squidnft-fe\\contracts\\BSCSquidPunks.sol",
  "compiler": {
    "name": "solc",
    "version": "0.8.4+commit.c7e474f2.Emscripten.clang"
  },
  "schemaVersion": "3.4.3",
  "updatedAt": "2021-12-08T13:41:06.411Z",
  "networkType": "ethereum",
  "devdoc": {
    "kind": "dev",
    "methods": {
      "approve(address,uint256)": {
        "details": "See {IERC721-approve}."
      },
      "balanceOf(address)": {
        "details": "See {IERC721-balanceOf}."
      },
      "getApproved(uint256)": {
        "details": "See {IERC721-getApproved}."
      },
      "isApprovedForAll(address,address)": {
        "details": "See {IERC721-isApprovedForAll}."
      },
      "name()": {
        "details": "See {IERC721Metadata-name}."
      },
      "ownerOf(uint256)": {
        "details": "See {IERC721-ownerOf}."
      },
      "safeTransferFrom(address,address,uint256)": {
        "details": "See {IERC721-safeTransferFrom}."
      },
      "safeTransferFrom(address,address,uint256,bytes)": {
        "details": "See {IERC721-safeTransferFrom}."
      },
      "setApprovalForAll(address,bool)": {
        "details": "See {IERC721-setApprovalForAll}."
      },
      "supportsInterface(bytes4)": {
        "details": "See {IERC165-supportsInterface}."
      },
      "symbol()": {
        "details": "See {IERC721Metadata-symbol}."
      },
      "tokenURI(uint256)": {
        "details": "See {IERC721Metadata-tokenURI}."
      },
      "transferFrom(address,address,uint256)": {
        "details": "See {IERC721-transferFrom}."
      }
    },
    "version": 1
  },
  "userdoc": {
    "kind": "user",
    "methods": {},
    "version": 1
  }
}